:100000000C944E000C946B000C946B000C946B00E1
:100010000C946B000C946B000C946B000C946B00B4
:100020000C946B000C946B000C946B000C946B00A4
:100030000C946B000C946B000C946B000C946B0094
:100040000C946B000C946B000C946B000C946B0084
:100050000C946B000C946B000C946B000C946B0074
:100060000C946B000C946B000C946B000C946B0064
:100070000C946B003E064106440647064A064D06B0
:1000800050065306560659069B099D099F09A1096A
:10009000A309A509A709A909AB09AD0911241FBE28
:1000A000CFEFD4E0DEBFCDBF14E0A0E0B1E0EAE3E3
:1000B000F9E102C005900D92AE30B107D9F724E006
:1000C000AEE0B4E001C01D92A932B207E1F70E9490
:1000D000AF0A0C949B0C0C940000E1E6F0E080E881
:1000E00080831082A89584B7877F84BFE0E6F0E024
:1000F00080818861808310820895811105C0662304
:1001000011F0429A0895429808953A9A429A0895B1
:100110001092800084E080938100109285001092FC
:100120008400089580918400909185000895AC0129
:1001300080918400909185009C01241B350B283E02
:100140003340B0F708952091840030918500820FEC
:10015000931F0C949700853098F4673088F421E061
:1001600030E001C0220F6A95EAF7E82FF0E0E15F86
:10017000FB4F922F9095808189234111822B8083A0
:100180000895853080F4673070F421E030E001C0DC
:10019000220F6A95EAF7E82FF0E0E15FFB4F8081DC
:1001A000282381E009F480E0089560910E04E62F91
:1001B000F0E0E15FFB4F80810E94F60180910E0428
:1001C0008F5F853018F480930E04089510920E040A
:1001D0000895EFE0F4E010821182128213821482FB
:1001E00008950E94D4010C94E9006230710519F160
:1001F00070F46130710559F5FC01FF2724A1392FF6
:100200003095922F932394A385A183231DC063303F
:10021000710541F064307105D1F4FC01FF2784A120
:10022000892B0FC0FC01FF2784A1892B84A385A102
:100230009095892309C0FC01FF2784A1292F2095CF
:10024000822384A385A1892B85A381E0089580E082
:100250000895E82FF0E0EE0FFF1FEC5EFB4F80816A
:10026000882321F0918181E0892702C080E090E01D
:1002700081700895E82FF0E0EE0FFF1FEC5EFB4F5A
:100280008081811102C0818102C080E090E0817094
:100290000895E82FF0E0EE0FFF1FEC5EFB4F80812A
:1002A0000895E82FF0E0EE0FFF1FEC5EFB4F90810A
:1002B00081E0892708957F928F929F92AF92BF929B
:1002C000CF92DF92EF92FF920F931F93CF93DF9322
:1002D000C4E1D4E057E3C52E51E0D52E66E0762E7A
:1002E00088818983F601019111916F015801BB2426
:1002F000F50124A1E12EFF2485A190E08E219F210C
:1003000030E02E213F21232B31F0892B51F433E0B3
:10031000832E912C0DC0892B41F488248394912C39
:1003200007C094E0892E912C03C082E0882E912C86
:1003300064E070E0C8010E94F50062E070E0C8016E
:100340000E94F500872D8A95F1F7F50183A190E0D1
:10035000E822F92281E0EF2809F080E08883B401E7
:10036000C8010E94F5002296F4E0CE31DF0709F0C3
:10037000B7CFDF91CF911F910F91FF90EF90DF905A
:10038000CF90BF90AF909F908F907F9008950895E9
:100390009C01FC01FF2784A1832B84A395A1892FB5
:1003A000832B85A381E00895CF93DF93CBE4D1E045
:1003B000899199910E94C80181E0C935D807C1F798
:1003C00083E090E40E94C80180E090E80E94C801A8
:1003D00083E090E10E94C80183E090E80E94C80198
:1003E00083E090E2DF91CF910C94C801E0911E046C
:1003F000F0E0EE0FFF1FEF5BFE4F20813181F9012E
:10040000FF2795A1932B95A3EBE4F1E097E02081E2
:100410003181D901BB2795962C91959780FF03C018
:100420003095232301C0232B95962C9386959150CC
:1004300032969111ECCFE62FF0E0EE0FFF1FEF5B4D
:10044000FE4F80819181FC01FF2785A19095892332
:1004500085A360931E040895009789F0FC01238111
:10046000621B67FD09C0062E000C770B248130E06B
:1004700081E0621773070CF080E08170089580E0DE
:100480000895CF93DF93FC01892B79F1818148177F
:1004900060F59281291748F59381A62FA91BA7FD26
:1004A00024C00A2E000CBB0BC481D0E0AC17BD07E2
:1004B000E4F4622F0E94F60A480F858190E0BD01A6
:1004C0000E94FF0A0696242F269526952695E80F6A
:1004D000F91FE20FF11D808190E0477002C09595F1
:1004E00087954A95E2F7817001C080E0DF91CF9156
:1004F0000895CF93DF93EC010E9488009E0140E0B5
:1005000050E062E17AE780E090E00E94240B3093B3
:10051000220420932104DF91CF91089580911F043C
:10052000909120040E94970020911F043091200494
:100530008091210490912204820F931F90932004B4
:1005400080931F040895692F0C94C10041E061114C
:1005500001C040E0692F0C94AB000C94A6025F929E
:100560006F927F928F929F92AF92BF92CF92DF92C3
:10057000EF92FF920F931F93CF93DF93562E872E08
:10058000942E5C01E62EF72EC62F660FDD0BC81BDE
:10059000D10987FDD395072F770F110B091B11097F
:1005A00097FD1395D7FF03C077247A9402C0772470
:1005B000739417FF03C066246A9402C06624639490
:1005C000D7FF03C0D195C195D10917FF03C011957D
:1005D00001951109C017D107A4F06E01D594C794F5
:1005E000F92EA51411F1692D8A2D9F2D0E94A602C6
:1005F000C01AD10AD7FE03C0CC0EDD1EF60CA70C24
:10060000F0CF6801D594C794E82EB81471F0692D25
:100610008E2D9B2D0E94A602CC1ADD0AD7FE03C0A8
:10062000C00ED11EE70CB60CF0CF692DC701DF91CB
:10063000CF911F910F91FF90EF90DF90CF90BF90DF
:10064000AF909F908F907F906F905F900C94A602D8
:10065000FF920F931F93CF93DF93D82FF92E162F6E
:10066000C72F042F792F0E94AF02402F6D2F7C2FB0
:100670008D2F9F2D0E94AF02402F612F7C2F812F45
:100680009F2D0E94AF02402F612F7C2F8D2F9C2F1A
:100690000E94AF02DF91CF911F910F91FF900895BB
:1006A0000E94E900E0E0F1E0118A14860895DF92EB
:1006B000EF92FF920F931F93CF93DF93D82E7B017E
:1006C000162F0F2D8091020190910301D0E0019728
:1006D00099F50F2D0D1BE0910801F0910901818121
:1006E000C0E0D817B8F48091080190910901FC018D
:1006F0002281C21768F42C2F4D2F6D2D0E944102CC
:10070000682F8E2D8C0F902F0E94A602CF5FEBCF0B
:10071000DF5FDFCFE0910801F09109018281C81706
:1007200040F460E08E2D8C0F902F0E94A602CF5FC8
:10073000F1CF015030C0DF5F1E2D1D0FE091080189
:10074000F09109018181C0E0D817A8F480910801D7
:1007500090910901FC012281C21768F72C2F4D2FBF
:100760006D2D0E944102682F812F9F2D9C0F0E94AA
:10077000A602CF5FEBCFE0910801F09109018281E1
:10078000C81740F460E0812F9F2D9C0F0E94A602A5
:10079000CF5FF1CF1F5F812F902FDF91CF911F91FE
:1007A0000F91FF90EF90DF9008950F931F93CF93D9
:1007B0008C01C0E0F80181918F01882341F00E94F3
:1007C0005703BC01CF5F853014F477FFF3CF8C2F34
:1007D000CF911F910F9108950F931F93CF93DF93A4
:1007E00010920C0140930D0110921001009108012C
:1007F000109109010115110509F449C09B01EC0193
:10080000F8018181609106017091070190E00E94DA
:10081000FF0ABC0180910A0190910B010E94100B0C
:10082000CB016AE070E00E94FF0A90930F01809371
:100830000E01309305012093040140E250E0BE0117
:1008400081E191E00E948C0C809100019091010166
:100850000197E9F4FE0101900020E9F73197BF010B
:100860006C1B7D0BF80181818F5F0E94F60A81501D
:1008700020910201309103012130310511F095E002
:1008800001C097E0981718F48EEF80931001DF9164
:10089000CF911F910F910895209102013091030192
:1008A0002130310511F070E001C076E04FEF60E0DB
:1008B0000E94EC03089590E0909307018093060155
:1008C000089590930101809300010895909303018E
:1008D000809302010895909309018093080108957F
:1008E0008091230490912404019690932404809392
:1008F000230420910E0130910F018217930708F411
:1009000069C01092240410922304E0910C01F0E0DD
:10091000E050FF4F818981110AC080910D01823022
:1009200008F458C0815080930D0110920C01809101
:100930000C0190E0FC01E050FF4F2189222309F4D3
:1009400049C04091000150910101209110014115D1
:10095000510521F04130510599F024C0211122C0E8
:1009600060910401709105018F5E9E4F0E94D50336
:1009700090E0019790910C01890F80930C0112C0B7
:1009800060910401709105014091020150910301B1
:100990004130510511F4720F01C0621B8F5E9E4FF2
:1009A0000E94D503809110018F5F80931001082E63
:1009B000000C990BE0910801F0910901218130E0D0
:1009C000281739073CF41092100180910C018F5FB9
:1009D00080930C010C94D500CF93DF93C0E0D1E05D
:1009E0009B878A870E94F10084E190E09F838E8339
:1009F000DF91CF910C9450031092800085E080939A
:100A00008100109282001092850010928400089557
:100A10000E94FC048091840090918500843F914065
:100A2000C8F3109285001092840008950E94FC047F
:100A30008091840090918500803A9F40C8F3109285
:100A400085001092840008950E94FC048091840027
:100A500090918500803E9E42C8F3109285001092CE
:100A6000840008950E94FC04809184009091850088
:100A7000803A9C48C8F31092850010928400089533
:100A800061E080E00E947D000E94080560E080E057
:100A90000C947D0061E080E00E947D000E940805CA
:100AA00060E080E00E947D000E94080561E080E037
:100AB0000E947D000E94080560E080E00E947D00A9
:100AC0000E94080561E080E00E947D000E94080508
:100AD00060E080E00C947D0061E080E00E947D0099
:100AE0000E94080560E080E00E947D000E940805E9
:100AF00061E080E00E947D000E94080560E080E0E7
:100B00000E947D000E94080561E080E00E947D0057
:100B10000E94080560E080E00E947D000E940805B8
:100B200061E080E00E947D000E94080560E080E0B6
:100B30000E947D000E94080561E080E00E947D0027
:100B40000E94080560E080E00E947D000E94080588
:100B500061E080E00E947D000E94080560E080E086
:100B60000C947D006230710519F170F461307105EB
:100B700059F5FC01FF2724A1392F3095922F93239B
:100B800094A385A183231DC06330710541F06430B7
:100B90007105D1F4FC01FF2784A1892B0FC0FC0152
:100BA000FF2784A1892B84A385A19095892309C05F
:100BB000FC01FF2784A1292F2095822384A385A1EE
:100BC000892B85A381E0089580E008950F931F93FA
:100BD000CF93DF93C3E6D1E064E070E0899199910F
:100BE0000E94B20581E0C137D807B1F7C9E5D1E06D
:100BF00003E611E064E070E0899199910E94B205EA
:100C00000C171D07B9F7DF91CF911F910F91089530
:100C1000CF93DF93EC0184E893E00E94790284E8AB
:100C200093E00E94EC0481E791E00E946B0484E170
:100C30000E945B0481E090E00E946104CE010E946A
:100C40004C040E945B010E948E020E94700484E0AA
:100C50000E9429018823A9F3DF91CF910C94E60526
:100C6000082E000C990BAA0BBB0BFC013197EA3044
:100C7000F10510F5E65CFF4F0C94430B8BE993E014
:100C80001DC085EA93E01AC08FEA93E017C089EB94
:100C900093E014C083EC93E011C08DEC93E00EC0A0
:100CA00087ED93E00BC081EE93E008C08BEE93E0FC
:100CB00005C085EF93E002C080E094E00C94080644
:100CC0000F931F93CF93DF93C3E6D1E063E070E00F
:100CD000899199910E94B20509E511E063E070E005
:100CE000F801819191918F010E94B205F1E00336E4
:100CF0001F07A1F781E0C137D80741F70E942405FB
:100D000064E070E080E090E40E94B2050E94160565
:100D100064E070E080E091E00E94B2050E94160558
:100D200064E070E083E090E40E94B2050E94160542
:100D300064E070E080E092E00E94B2050E94160537
:100D400064E070E083E090E20E94B2050E94160524
:100D500064E070E080E090E20E94B2050E94160517
:100D600064E070E080E090E80E94B2050E94160501
:100D700064E070E083E090E80E94B2050E941605EE
:100D800064E070E080E090E10E94B20564E070E011
:100D900080E094E00E94B2050E94240564E070E0C7
:100DA00080E098E0DF91CF911F910F910C94B205F4
:100DB0000F931F93CF93DF93C3E6D1E00E94080502
:100DC00063E070E0899199910E94B20509E511E014
:100DD0000E94080563E070E0F801819191918F0114
:100DE0000E94B205F1E003361F0791F781E0C13799
:100DF000D80721F7DF91CF911F910F910C94240513
:100E00000E948E020E9470040E945B0184E00E9496
:100E100029018823A9F30E9450030C94E605CF937F
:100E2000DF9384E893E00E94790284E893E00E94D3
:100E3000EC0482E090E00E946B0BEC0118821982B6
:100E400061E0888199810E94AD020E940007CE0175
:100E5000DF91CF910895CF93DF9384E893E00E94D0
:100E6000790284E893E00E94EC0484E090E00E9420
:100E70006B0BEC0181E08883898383E08A8385E0C2
:100E80008B8361E0888199810E94AD0261E08A8153
:100E90009B810E94AD020E940007CE01DF91CF919D
:100EA0000895CF93DF9384E893E00E94790284E869
:100EB00093E00E94EC0486E090E00E946B0BEC0152
:100EC000188219821A8286E08B8384E08C831D82CB
:100ED00061E0888199810E94AD0261E08A819B81F5
:100EE0000E94AD0261E08C819D810E94AD020E9452
:100EF0000007CE01DF91CF910895CF93DF9384E86F
:100F000093E00E94790284E893E00E94EC0488E078
:100F100090E00E946B0BEC0184E0888383E089837E
:100F200081E08A8382E08B838C8385E08D831E82BF
:100F300086E08F8361E0888199810E94AD0261E043
:100F40008A819B810E94AD0261E08C819D810E941B
:100F5000AD0261E08E819F810E94AD020E94000778
:100F6000CE01DF91CF910895CF93DF9384E893E092
:100F70000E94790284E893E00E94EC048AE090E009
:100F80000E946B0BEC01188285E0898383E08A83E1
:100F900096E09B8394E09C839D838E831F8281E0F7
:100FA000888782E0898761E0888199810E94AD020B
:100FB00061E08A819B810E94AD0261E08C819D810C
:100FC0000E94AD0261E08E819F810E94AD0261E0CE
:100FD000888599850E94AD020E940007CE01DF91AD
:100FE000CF910895CF93DF9384E893E00E94790234
:100FF00084E893E00E94EC048CE090E00E946B0B8C
:10100000EC0183E0888396E099838A838B8391E067
:101010009C8392E09D839E831F82188624E029870B
:101020009A878B8761E0888199810E94AD0261E097
:101030008A819B810E94AD0261E08C819D810E942A
:10104000AD0261E08E819F810E94AD0261E08885E2
:1010500099850E94AD0261E08A859B850E94AD0260
:101060000E940007CE01DF91CF910895CF93DF93C7
:1010700084E893E00E94790284E893E00E94EC0403
:101080008EE090E00E946B0BEC0181E0888336E0FB
:1010900039838A831B8223E02C838D8394E09E8393
:1010A0009F83988739878A8785E08B871C862D8761
:1010B00061E0888199810E94AD0261E08A819B8113
:1010C0000E94AD0261E08C819D810E94AD0261E0D1
:1010D0008E819F810E94AD0261E0888599850E9482
:1010E000AD0261E08A859B850E94AD0261E08C853E
:1010F0009D850E94AD020E940007CE01DF91CF9135
:101100000895CF93DF9384E893E00E94790284E806
:1011100093E00E94EC0480E190E00E946B0BEC01F4
:1011200084E0888319821A821B821C8296E09D8348
:101130008E838F8322E02887898723E02A8731E006
:101140003B873C878D872E879F8761E088819981C7
:101150000E94AD0261E08A819B810E94AD0261E044
:101160008C819D810E94AD0261E08E819F810E94F1
:10117000AD0261E0888599850E94AD0261E08A85B3
:101180009B850E94AD0261E08C859D850E94AD0229
:1011900061E08E859F850E94AD020E940007CE010E
:1011A000DF91CF910895CF93DF9384E893E00E947D
:1011B000790284E893E00E94EC0482E190E00E94CE
:1011C0006B0BEC0183E08883898391E09A838B83A6
:1011D0001C821D829E831F82888719861A8625E0BD
:1011E0002B879C8784E08D878E872F87888B86E06E
:1011F000898B61E0888199810E94AD0261E08A81DA
:101200009B810E94AD0261E08C819D810E94AD02B4
:1012100061E08E819F810E94AD0261E088859985A1
:101220000E94AD0261E08A859B850E94AD0261E06B
:101230008C859D850E94AD0261E08E859F850E9410
:10124000AD0261E0888999890E94AD020E94000781
:10125000CE01DF91CF910895CF93DF9384E893E09F
:101260000E94790284E893E00E94EC0484E190E01B
:101270000E946B0BEC0182E08883898393E09A8360
:1012800081E08B831C821D821E828F831886998742
:101290001A8635E03B8724E02C878D873E8786E0E1
:1012A0008F87288B898B9A8B8B8B61E088819981C2
:1012B0000E94AD0261E08A819B810E94AD0261E0E3
:1012C0008C819D810E94AD0261E08E819F810E9490
:1012D000AD0261E0888599850E94AD0261E08A8552
:1012E0009B850E94AD0261E08C859D850E94AD02C8
:1012F00061E08E859F850E94AD0261E088899989B1
:101300000E94AD0261E08A899B890E94AD020E9421
:101310000007CE01DF91CF910895082E000C990BA4
:10132000AA0BBB0BFC013197EA30F105B0F4EC5B82
:10133000FF4F0C94430B0C940F070C942B070C9449
:1013400051070C947D070C94B4070C94F2070C948D
:1013500036080C9481080C94D3080C942C09E62FC1
:10136000EE0FFF0BE45AFC4F20813181F901FF277A
:1013700095A1232F2095922395A3880F990BFC010B
:10138000EE5AFC4F80819181FC01FF2785A1909549
:10139000892385A30895E62FEE0FFF0BE45AFC4F37
:1013A00020813181F901FF2795A1932B95A3880F07
:1013B000990BFC01EE5AFC4F80819181FC01FF27C3
:1013C00085A1892B85A308959F92AF92BF92CF925A
:1013D000DF92EF92FF920F931F93CF93DF937B01E6
:1013E000042F952EEC0184E893E00E94EC04C701E1
:1013F000880F991F0E946B0B5C01FC0180E090E05C
:101400002FEF8E159F052CF42083218301963296B1
:10141000F8CFC12CD12C0E945B016D2F8C2F0E9424
:10142000AF09CE14DF0421F40E94E60511E08AC062
:1014300081E00E942901882341F06D2F8C2F0E94AA
:10144000CB09C43060F5CF5F2AC083E00E94290138
:10145000882351F06D2F8C2F0E94CB098FEF8C0FBA
:101460008430E8F4C82F1BC080E00E942901882343
:1014700051F06D2F8C2F0E94CB098FEF8D0F86308E
:1014800070F4D82F0CC082E00E942901882359F003
:101490006D2F8C2F0E94CB09D63008F4DF5F6D2FA3
:1014A0008C2F0E94AF0984E00E942901882309F44F
:1014B000B2CF802F992D20E030E02E153F055CF44F
:1014C000FC01029640814C1303C041814D1729F065
:1014D0002F5F3F4FF2CF20E001C021E0A50180E067
:1014E00090E08E159F055CF4FA014E5F5F4F3081EE
:1014F0003C1303C031813D1721F00196F2CF10E07B
:1015000001C011E091E0812F8927382F322369F043
:10151000F601EE0FFF1FEA0DFB1DC083D1830E9471
:101520004A058FEFC81AD80A76CF122319F00E9405
:10153000400571CF9227892309F46DCF0E946C0575
:101540000E94E605812FDF91CF911F910F91FF90AF
:10155000EF90DF90CF90BF90AF909F9008950F9342
:101560001F93CF93DF930E946D000E9485008AE64F
:1015700093E00E9408060E94160560E080E00E9449
:101580007D00C1E0D0E08C2F0E9430068C2F0E949D
:101590008D098C01AC01BE0182E096E00E94E40955
:1015A000882351F0C8010E94030C0E94D80621969E
:1015B000CB30D10541F703C0C8010E94030C61E0A4
:1015C00080E00E947D000E9460068CE893E00E940B
:1015D00008060E94320560E080E00E947D0080E005
:1015E00090E0DF91CF911F910F910895002480FD2D
:1015F000060E660F11F08695D1F7802D0895002410
:10160000552704C0080E591F880F991F009729F00D
:1016100076956795B8F37105B9F7802D952F0895E4
:10162000AA1BBB1B51E107C0AA1FBB1FA617B70708
:1016300010F0A61BB70B881F991F5A95A9F7809524
:101640009095BC01CD010895052E97FB1EF40094E2
:101650000E943B0B57FD07D00E94490B07FC03D0AB
:101660004EF40C943B0B50954095309521953F4F8F
:101670004F4F5F4F089590958095709561957F4F7E
:101680008F4F9F4F0895EE0FFF1F0590F491E02DAF
:101690000994A1E21A2EAA1BBB1BFD010DC0AA1FB3
:1016A000BB1FEE1FFF1FA217B307E407F50720F0CB
:1016B000A21BB30BE40BF50B661F771F881F991F46
:1016C0001A9469F760957095809590959B01AC018F
:1016D000BD01CF0108950F931F93CF93DF93823005
:1016E000910510F482E090E0E0912704F091280445
:1016F00020E030E0A0E0B0E0309719F14081518166
:101700000281138148175907C8F08417950769F4B7
:10171000109731F012960C93129713961C9327C0D2
:10172000009327041093280422C02115310519F0D5
:101730004217530718F49A01BD01EF01DF01F801C8
:10174000DBCF21153105F9F0281B390B2430310589
:1017500080F48A819B816115710521F0FB019383DF
:10176000828304C09093280480932704FE0132965C
:1017700044C0FE01E20FF31F81939193225031097F
:10178000398328833AC02091250430912604232BE5
:1017900041F4209133013091340130932604209399
:1017A000250420913101309132012115310541F498
:1017B0002DB73EB74091350150913601241B350BB2
:1017C000E0912504F0912604E217F307A0F42E1B04
:1017D0003F0B2817390778F0AC014E5F5F4F241795
:1017E000350748F04E0F5F1F5093260440932504A1
:1017F0008193919302C0E0E0F0E0CF01DF91CF91BF
:101800001F910F910895CF93DF93009709F481C042
:10181000FC01329713821282A0912704B091280410
:10182000109781F420813181820F931F209125042C
:10183000309126042817390751F5F0932604E093D8
:10184000250467C0ED0120E030E0CE17DF0740F44B
:101850004A815B819E0141155105F1F0EA01F5CF06
:10186000D383C28340815181840F951FC817D90744
:1018700059F488819981840F951F02969183808302
:101880008A819B81938382832115310529F4F0930A
:101890002804E09327043DC0E901FB83EA834991D2
:1018A0005991C40FD51FEC17FD0761F48081918118
:1018B000840F951F0296E901998388838281938121
:1018C0009B838A83E0E0F0E012968D919C911397C0
:1018D000009719F0FD01DC01F7CF8D919C911197D4
:1018E0009D012E5F3F4F820F931F20912504309161
:1018F00026042817390769F4309729F41092280430
:101900001092270402C013821282B0932604A0937F
:101910002504DF91CF910895FB01DC014150504037
:1019200048F001900D920020C9F701C01D9241506E
:0A1930005040E0F70895F894FFCF4F
:10193A000000000000001400000000000000000089
:10194A00000000000000000000000000000000008D
:10195A00000000000000000000000000000000007D
:10196A0000000029042000038003400320008003B4
:10197A001003400080031003800320004000200071
:10198A001000080004000200010340008003100355
:10199A00800320004000200010000800040002001C
:1019AA0001010507205F050000000000C6186380DA
:1019BA00014A290000004A7DF59502C417471F0114
:1019CA0063222232062615519305860800000088F4
:1019DA0008210802822084880080545709008090D8
:1019EA004F0800000060880000800F00000000001F
:1019FA008C0100222202002EE63AA303C410428878
:101A0A00032E4244C4072E4207A30388A9F41102F5
:101A1A003F8407A3032E8617A3033F424408012EDF
:101A2A004617A3032E460FA303C018600C00C01864
:101A3A006088008888200802007CF00100822088E3
:101A4A0088002E424400012E425BAB0344C51F634B
:101A5A00042FC617E3032E8610A2032FC618E3032A
:101A6A003F8417C2073F841742002E861EA3073100
:101A7A00C61F63048E10428803104218A3033195CF
:101A8A00515204218410C20771D71A630471D61CFB
:101A9A0063042EC618A3032FC61742002EC65893F6
:101AAA00052FC61763042E0607A3039F10420801D9
:101ABA0031C618A30331C618150131C65AAB023113
:101ACA002AA26204312A4208011F2222C20727845D
:101ADA0010C20120088220000E2184900344450090
:101AEA000000000000C00782200000000038E8A3C0
:101AFA000721B419E30300B810A20310DA1CA307E4
:101B0A0000B8F883034C8A238400C0C7E8A10321E4
:101B1A00B41963040418428803083084920121A48A
:101B2A00324A02861042880300AC5A630400B41990
:101B3A00630400B818A30300BCF8420000D8EC21E3
:101B4A000400B419420000B8E0E003421C21240357
:101B5A0000C418B30500C418150100C45AAB02002A
:101B6A004445540400C4E8A103007C44C407881017
:101B7A004108028410420801821044880000888AC1
:101B8A00000003400080031003800320004000206F
:101B9A000010000800040002000120424F4D4220BC
:101BAA004445465553455253202042793A204861CC
:101BBA0069646572202620436172610020582047BB
:101BCA00414D45204F564552205800204C657665B8
:101BDA004C2D312000204C6576654C2D322000209A
:101BEA004C6576654C2D332000204C6576654C2D6E
:101BFA00342000204C6576654C2D352000204C653C
:101C0A0076654C2D362000204C6576654C2D3720A4
:101C1A0000204C6576654C2D382000204C65766591
:101C2A004C2D392000204C6576654C2D3130200032
:0E1C3A002047616D6520427567676564200074
:00000001FF
